S00C0000414443312E737265631F
S11300000C942A000C943F000C943F000C943F0085
S11300100C943F000C943F000C943F000C943F0060
S11300200C943F000C943F000C943F000C943F0050
S11300300C943F000C943F000C943F000C943F0040
S11300400C943F000C943F000C943F000C943F0030
S11300500C943F0011241FBECFE5D8E0DEBFCDBF16
S113006010E0A0E6B0E0E0E6F1E002C005900D92F9
S1130070AC36B107D9F70E9469000C94AE000C9419
S113008000001ABA87E886B980E487B9089597B161
S1130090892B87B986B1806486B9349BFECF24B19D
S11300A085B190E0982F8827820F911D0895805A7A
S11300B09F4FFC01808188BB0895805A9F4FFC01AB
S11300C0808182BB0895805A9F4FFC01808185BB4B
S11300D008958FEF81BB84BB87BB0E94410080E001
S11300E090E00E94470064E670E00E948600EB0105
S11300F06AE070E00E9486008B010E945700C801EC
S11301000E945D00CE010E946300E9CF97FB072E99
S113011016F4009407D077FD09D00E949A0007FCDA
S113012005D03EF4909581959F4F08957095619503
S11301307F4F0895AA1BBB1B51E107C0AA1FBB1F19
S1130140A617B70710F0A61BB70B881F991F5A955F
S1130150A9F780959095BC01CD010895F894FFCF3F
S10F01603F065B4F666D7D077F6F00005B
S9030000FC
