:020000040000FA
:100000000C945D000C9485000C9485000C94850084
:100010000C9485000C940C050C9485000C948500C0
:100020000C9485000C9485000C9485000C9485003C
:100030000C9485000C9485000C9485000C9485002C
:100040000C944B030C9485000C94BB030C94950307
:100050000C9485000C9485000C9485000C9485000C
:100060000C94ED030C948500000000002400270090
:100070002A0000000000250028002B0004040404CE
:100080000404040402020202020203030303030342
:10009000010204081020408001020408102001021F
:1000A00004081020000000080002010000030407FB
:1000B0000000000000000000170611241FBECFEF53
:1000C000D8E0DEBFCDBF11E0A0E0B1E0ECE3FEE0A0
:1000D00002C005900D92A635B107D9F722E0A6E53A
:1000E000B1E001C01D92A23CB207E1F710E0CDE5FE
:1000F000D0E004C02197FE010E941607CC35D1073D
:10010000C9F70E9450060C941C070C94000090E064
:10011000FC01EC55FF4F2491FC01E057FF4F349157
:10012000FC01E458FF4FE491EE23C9F0222339F09B
:10013000233001F1A8F4213019F1223029F1F0E047
:10014000EE0FFF1FEE58FF4FA591B4918FB7F894B3
:10015000EC91611126C030953E233C938FBF0895EA
:100160002730A9F02830C9F0243049F78091800069
:100170008F7D03C0809180008F7780938000DFCFD8
:1001800084B58F7784BDDBCF84B58F7DFBCF809125
:10019000B0008F778093B000D2CF8091B0008F7D78
:1001A000F9CF3E2BDACF3FB7F894809115029091AA
:1001B0001602A0911702B091180226B5A89B05C09F
:1001C0002F3F19F00196A11DB11D3FBFBA2FA92FD6
:1001D000982F8827BC01CD01620F711D811D911DD3
:1001E00042E0660F771F881F991F4A95D1F708953F
:1001F00008950895AF92BF92CF92DF92EF92FF924F
:100200000F931F93CF93DF936C017B018B01040F3E
:10021000151FEB015E01AE18BF08C017D10759F0DA
:100220006991D601ED91FC910190F081E02DC6011C
:100230000995892B79F7C501DF91CF911F910F9116
:10024000FF90EF90DF90CF90BF90AF900895FC01AA
:10025000538D448D252F30E0842F90E0821B930B2B
:10026000541710F0CF96089501970895FC01918DD1
:10027000828D981761F0A28DAE0FBF2FB11D5D96D4
:100280008C91928D9F5F9F73928F90E008958FEF76
:100290009FEF0895FC01918D828D981731F0828D2A
:1002A000E80FF11D858D90E008958FEF9FEF089581
:1002B000FC01918D228D892F90E0805C9F4F821BE5
:1002C00091098F739927089589E192E00E9458015E
:1002D00021E0892B09F420E0822F089580E090E04E
:1002E000892B29F00E94640181110C94000008956B
:1002F000FC01A48DA80FB92FB11DA35ABF4F2C919B
:10030000848D90E001968F739927848FA689B78991
:100310002C93A089B1898C91837080648C93938D88
:10032000848D981306C00288F389E02D80818F7D2B
:1003300080830895EF92FF920F931F93CF93DF93E3
:10034000EC0181E0888F9B8D8C8D98131AC0E88911
:10035000F989808185FF15C09FB7F894EE89FF89E0
:100360006083E889F98980818370806480839FBF7E
:1003700081E090E0DF91CF911F910F91FF90EF907E
:100380000895F62E0B8D10E00F5F1F4F0F7311278E
:10039000E02E8C8D8E110CC00FB607FCFACFE889C9
:1003A000F989808185FFF5CFCE010E947801F1CFD8
:1003B000EB8DEC0FFD2FF11DE35AFF4FF0829FB73D
:1003C000F8940B8FEA89FB8980818062CFCFCF932D
:1003D000DF93EC01888D8823B9F0AA89BB89E8896D
:1003E000F9898C9185FD03C0808186FD0DC00FB613
:1003F00007FCF7CF8C9185FFF2CF808185FFEDCF91
:10040000CE010E947801E9CFDF91CF91089520912C
:10041000BE01260F3327331F21323105ECF4209122
:10042000E201FC0190E080E0243069F082E0089570
:10043000A091BE012191AC0142565E4FA40FB52F91
:10044000B11D2C930196861798F38091BE01680F19
:100450006093BE0180E0089581E008951092E2016A
:1004600081E08093E4011092E30161E082E10E9467
:10047000870061E083E10E948700E9EBF0E0808182
:100480008E7F808380818D7F808388E48093B80015
:1004900085E48093BC000895CF93DF9391E090931F
:1004A0009D018823B9F0C091B800D091BA00809125
:1004B000BC008A7B8093BC0060E082E10E948700E0
:1004C00060E083E10E9487000E942E02D093BA0070
:1004D000C093B800DF91CF9108950895E0910F0285
:1004E00080910E02E81730F4F0E0E858FE4F80816A
:1004F00090E008958FEF9FEF089590910F02809103
:100500000E022FEF3FEF981748F4E92FF0E0E8587C
:10051000FE4F208130E09F5F90930F02C901089544
:1005200080910E0290910F02891B990B0895CF9232
:10053000DF92EF92FF920F931F93CF93DF937C0193
:10054000CB018A0120917701222389F0EB016B0115
:10055000C40ED51ECC15DD0569F06991D701ED916A
:10056000FC910190F081E02DC7010995F3CF642F34
:100570000E940702C801DF91CF911F910F91FF9058
:10058000EF90DF90CF900895CF93DF931F92CDB778
:10059000DEB76983209177012223F9F020910C02C4
:1005A000203258F021E030E0FC013383228390E0D8
:1005B00080E00F90DF91CF91089580910D02E82F98
:1005C000F0E0E95AFE4F998190838F5F80930D028E
:1005D00080930C0281E090E0ECCF61E0CE010196C7
:1005E0000E940702F7CF90E080E00895CF93DF9359
:1005F000FC0101900020E9F73197AF01481B590B2E
:10060000BC0189E192E00E94FA00EC0142E050E076
:1006100064E271E089E192E00E94FA008C0F9D1F74
:10062000DF91CF91089585ED8093BC008091990171
:1006300090919A01A0919B01B0919C010796A11DF8
:10064000B11D23E0B695A795979587952A95D1F783
:100650002091BC0024FD03C01092E2010895409156
:10066000990150919A0160919B0170919C01452BD9
:10067000462B472B69F30097A105B10541F02AE20B
:100680002A95F1F700C00197A109B109E1CF809146
:1006900098010C944C021F920F920FB60F921124E6
:1006A0002F933F938F939F93AF93BF9380911102AA
:1006B00090911202A0911302B09114023091100295
:1006C00023E0230F2D3758F50196A11DB11D20936E
:1006D00010028093110290931202A0931302B09320
:1006E00014028091150290911602A0911702B09108
:1006F00018020196A11DB11D809315029093160258
:10070000A0931702B0931802BF91AF919F918F9160
:100710003F912F910F900FBE0F901F90189526E8D4
:10072000230F0296A11DB11DD2CF1F920F920FB6BB
:100730000F9211242F933F934F935F936F937F9367
:100740008F939F93AF93BF93EF93FF9389E192E0D1
:100750000E947801FF91EF91BF91AF919F918F918E
:100760007F916F915F914F913F912F910F900FBEAD
:100770000F901F9018951F920F920FB60F92112491
:100780002F938F939F93EF93FF93E0912902F09122
:100790002A028081E0912F02F091300282FD1BC07D
:1007A0009081809132028F5F8F7320913302821784
:1007B00041F0E0913202F0E0E75EFD4F958F8093CB
:1007C0003202FF91EF919F918F912F910F900FBE69
:1007D0000F901F9018958081F4CF1F920F920FB643
:1007E0000F9211242F933F934F935F936F937F93B7
:1007F0008F939F93AF93BF93EF93FF938091B90033
:10080000887F803609F44AC0F0F5883209F4A7C021
:1008100018F5803109F49BC0B8F4882309F4F9C0B5
:10082000883009F494C0FF91EF91BF91AF919F91EF
:100830008F917F916F915F914F913F912F910F9089
:100840000FBE0F901F901895883109F488C0803230
:1008500051F78093E10114C0803409F49DC040F445
:100860008033B9F38833F9F68093E10185ECB0C0A9
:10087000803509F485C0883509F496C0883499F626
:100880000E941303D0CF883909F48CC038F588371B
:1008900029F050F4883611F0803729F683E08093F0
:1008A000E2011092E00157C0883809F47BC080391A
:1008B00019F0803809F0B7CF8091E001803208F05C
:1008C00071C0E091E00181E08E0F8093E0018091A2
:1008D000BB00F0E0E054FE4F80833DC0803B39F028
:1008E000E0F4803A09F479C0883A09F09CCF84E0BA
:1008F0008093E2011092BF011092BE01E0910A02C2
:10090000F0910B0209958091BE0181110FC081E029
:100910008093BE0110929E0109C0803C09F4A6CFCD
:10092000883C09F4A3CF883B09F07DCFE091BF015B
:1009300081E08E0F8093BF01F0E0E256FE4F808190
:100940008093BB009091BF018091BE0129C080912E
:1009500007028093BB0085EC8093BC0064CF90912C
:10096000060280910502981758F5E091060281E091
:100970008E0F80930602F0E0EB51FE4F8081E9CFAD
:10098000E091060281E08E0F809306028091BB0009
:10099000F0E0EB51FE4F80839091060280910502BA
:1009A0009817C8F285E8D8CFE091060281E08E0F53
:1009B000809306028091BB00F0E0EB51FE4F8083F4
:1009C0008091E40181115CCF81E08093E30184EAAE
:1009D0008093BC001092E20126CF85EC8093BC008E
:1009E0001092E2018091E001803230F4E091E00168
:1009F000F0E0E054FE4F10826091E00170E0E09181
:100A00000802F091090280EC91E009951092E00152
:100A10000ACF1092E10134CF1F920F920FB60F92BE
:100A20001124CF92DF92EF92FF920F931F932F9397
:100A30003F934F935F936F937F938F939F93AF9366
:100A4000BF93CF93EF93FF9387E291E00E94F6026A
:100A500081E0809377018DE08093560110920D0222
:100A600010920C0261E086EB92E00E94C402C091F9
:100A70000C02C13208F091C00E94D3006B017C01CE
:100A80008091E201811164C082E08093E20181E003
:100A90008093E4018FEF8093E10110920602C093EE
:100AA0000502A7E5B1E0E5EEF1E080E0C81397C0EC
:100AB00010920702809107028A6180930702809159
:100AC000E301813009F08FC01092E3010E94D3004E
:100AD0006B017C01809107028093BB00809199019A
:100AE00090919A01A0919B01B0919C01892B8A2B36
:100AF0008B2B99F00E94D3000091990110919A01DB
:100B000020919B0130919C016C197D098E099F09F0
:100B10000617170728073907E0F18091BC0083FD0D
:100B2000D9CF85EC8093BC000E94D3006B017C017F
:100B30008091E201823009F458C08091E1018F3F39
:100B400061F18091E101803241F18091E10125C0A4
:100B50008091990190919A01A0919B01B0919C0183
:100B6000892B8A2B8B2B09F48BCF0E94D300009109
:100B7000990110919A0120919B0130919C016C196F
:100B80007D098E099F09061717072807390708F0FE
:100B900077CF809198010E944C0210920D02109222
:100BA0000C021092770181E491E00E94F602FF911D
:100BB000EF91CF91BF91AF919F918F917F916F9165
:100BC0005F914F913F912F911F910F91FF90EF9067
:100BD000DF90CF900F900FBE0F901F9018959D91B2
:100BE00091938F5F63CF85EE9DCF80919901909116
:100BF0009A01A0919B01B0919C01892B8A2B8B2B90
:100C000009F496CF0E94D3000091990110919A01A6
:100C100020919B0130919C016C197D098E099F09DF
:100C2000061717072807390708F082CFB2CFE9E186
:100C3000F2E01382128288EE93E0A0E0B0E08483B9
:100C40009583A683B78324E031E03183208325ECAC
:100C500030E03587248724EC30E03787268720EC86
:100C600030E0318B208B21EC30E0338B228B22EC77
:100C700030E0358B248B26EC30E0378B268B118EC1
:100C8000128E138E148EE6EBF2E0138212828483AE
:100C90009583A683B78386E191E09183808308954D
:100CA000789484B5826084BD84B5816084BD85B547
:100CB000826085BD85B5816085BD80916E00816053
:100CC00080936E00109281008091810082608093F9
:100CD00081008091810081608093810080918000FB
:100CE0008160809380008091B10084608093B10026
:100CF0008091B00081608093B00080917A00846020
:100D000080937A0080917A00826080937A0080914B
:100D10007A00816080937A0080917A008068809365
:100D20007A001092C1007894E2E9F0E02491EEE7B5
:100D3000F0E084918823C1F090E0880F991FFC01B6
:100D4000E859FF4FC591D491FC01EE58FF4FA59192
:100D5000B4919FB7F8943881822F8095832388833C
:100D6000EC91E22BEC939FBF8091680084608093AC
:100D7000680080916D00846080936D0010920F0276
:100D800010920E0210920D0210920C020E942E027E
:100D900088EF90E090930B0280930A0289EF90E035
:100DA00090930902809308021092BA00E091290200
:100DB000F0912A0282E08083E0912502F0912602E0
:100DC0001082E0912702F09128028FEC808310922C
:100DD0003102E0912D02F0912E0286E08083E091B5
:100DE0002B02F0912C02808180618083E0912B02A4
:100DF000F0912C02808188608083E0912B02F09139
:100E00002C02808180688083E0912B02F0912C027B
:100E100080818F7D8083C0E0D0E02097F1F30E9435
:100E200064018823D1F30E940000F7CFEE0FFF1F6B
:100E30000590F491E02D0994F894FFCF0000000094
:100E40009A01FA002701E701580136014A01000022
:100E50000000C4029702F3026D0290027D026E024E
:100E60000D0A005374617274696E6720746F207488
:100E700072616E736D69742E2E2E2E2E00456E6477
:100E8000206F66207472616E736D69737373696F1E
:020E90006E00F2
:107E0000112484B714BE81FFF0D085E080938100F7
:107E100082E08093C00088E18093C10086E0809377
:107E2000C20080E18093C4008EE0C9D0259A86E02C
:107E300020E33CEF91E0309385002093840096BBD3
:107E4000B09BFECF1D9AA8958150A9F7CC24DD24C4
:107E500088248394B5E0AB2EA1E19A2EF3E0BF2EE7
:107E6000A2D0813461F49FD0082FAFD0023811F036
:107E7000013811F484E001C083E08DD089C08234E0
:107E800011F484E103C0853419F485E0A6D080C0E4
:107E9000853579F488D0E82EFF2485D0082F10E0AE
:107EA000102F00270E291F29000F111F8ED06801E7
:107EB0006FC0863521F484E090D080E0DECF843638
:107EC00009F040C070D06FD0082F6DD080E0C81688
:107ED00080E7D80618F4F601B7BEE895C0E0D1E017
:107EE00062D089930C17E1F7F0E0CF16F0E7DF06D8
:107EF00018F0F601B7BEE89568D007B600FCFDCFD4
:107F0000A601A0E0B1E02C9130E011968C91119780
:107F100090E0982F8827822B932B1296FA010C0160
:107F200087BEE89511244E5F5F4FF1E0A038BF0790
:107F300051F7F601A7BEE89507B600FCFDCF97BE46
:107F4000E89526C08437B1F42ED02DD0F82E2BD052
:107F50003CD0F601EF2C8F010F5F1F4F84911BD097
:107F6000EA94F801C1F70894C11CD11CFA94CF0C13
:107F7000D11C0EC0853739F428D08EE10CD085E9AC
:107F80000AD08FE07ACF813511F488E018D01DD067
:107F900080E101D065CF982F8091C00085FFFCCF94
:107FA0009093C60008958091C00087FFFCCF809118
:107FB000C00084FD01C0A8958091C6000895E0E648
:107FC000F0E098E1908380830895EDDF803219F02E
:107FD00088E0F5DFFFCF84E1DECF1F93182FE3DFCA
:107FE0001150E9F7F2DF1F91089580E0E8DFEE27F6
:047FF000FF270994CA
:027FFE00040479
:00000001FF
