:100000000C942A000C9434000C9434000C943400AA
:100010000C9434000C9434000C9434000C94340090
:100020000C9434000C9434000C9434000C94340080
:100030000C9434000C9434000C9434000C94340070
:100040000C9434000C9434000C9434000C94340060
:100050000C94340011241FBECFE5D8E0DEBFCDBF25
:100060000E9440000C944D000C94000012BE85E0EC
:1000700083BF08B600FEFDCF13BE81E088BF0895A0
:100080008FEF84BB81B38E7F81BB81E085BB0E94F3
:0E009000360015BA0E943600F8CFF894FFCF64
:00000001FF
