S0140000736166655F70726F6A6563742E737265631B
S11300000C942A000C9447000C9447000C940403AD
S11300100C9447000C9447000C9447000C94470040
S11300200C9447000C9447000C9447000C94470030
S11300300C9447000C9447000C9447000C94470020
S11300400C9447000C9447000C9447000C94470010
S11300500C94470011241FBECFE5D8E0DEBFCDBF0E
S113006011E0A0E6B0E0E4ECF7E002C005900D92E8
S1130070AE34B107D9F721E0AEE4B1E001C01D927E
S1130080A436B207E1F70E94A5030C94E0030C9494
S1130090000082BB85B38C7F85BB85B3886085BB3C
S11300A082E08A95F1F700C085B3877F85BB8FE630
S11300B097E10197F1F700C00000089582BB85B372
S11300C08D7F85BB85B3896085BB82E08A95F1F716
S11300D000C085B3877F85BB8FEC97E00197F1F76C
S11300E000C00000089584B38B6084BB8FEF81BB94
S11300F08FE39CE90197F1F700C0000088E30E94B8
S113010049008CE00E94490086E00E94490081E099
S11301100E94490080E80E94490008950F931F93AC
S1130120CF93DF938C01C0E0D0E003C00E945E0057
S11301302196F801EC0FFD1F80818111F7CFDF912B
S1130140CF911F910F910895CF93DF93EA018130EE
S113015031F4862F8F7080680E94490007C0823076
S113016029F4862F8F70806C0E944900CE010E9472
S11301708E00DF91CF91089581E00E94490080E8CC
S11301800E94490008951ABA87E886B980E487B9BD
S1130190089597B1907F97B997B1892B87B986B1A4
S11301A0806486B93699FECF84B195B10895CF9312
S11301B0C82F80E80E944900C03409F0ADC0809186
S11301C06001909161010097D1F50E94BC0044E068
S11301D050E06BE571E082E790E00E94C303892B55
S11301E059F486E790E00E948E0081E090E09093BD
S11301F061018093600117C086E890E00E948E0040
S11302002FEF89E698E1215080409040E1F700C04B
S113021000000E94BC0086E990E00E948E001092CB
S113022061011092600185E0EBE5F1E0DF011D92D0
S11302308A95E9F710925A011092590186C08130CB
S1130240910501F50E94BC0081EA90E00E948E00B5
S113025044E050E06BE571E084E591E00E94D10355
S113026085E0EBE5F1E0DF011D928A95E9F782E094
S113027090E0909361018093600110925A01109272
S1130280590163C0029709F060C044E050E06BE597
S113029071E084E591E00E94C303892B79F444E082
S11302A050E064E571E082E790E00E94D1030E948F
S11302B0BC008FEA90E00E948E001BC00E94BC002C
S11302C081EC90E00E948E00BFEF29E688E1B150F6
S11302D020408040E1F700C000000E94BC0086E797
S11302E090E00E948E0081E090E090936101809301
S11302F0600185E0EBE5F1E0DF01282F1D922A95EE
S1130300E9F7E4E5F1E0DF011D928A95E9F710923F
S11303105A011092590119C080ED8C0F8A30A8F44B
S11303208091590190915A018430910574F49C0193
S11303302F5F3F4F30935A0120935901FC01E55A36
S1130340FE4FC0838AE20E945E00CF9108959C0113
S1130350992314F42D5F3F4F3595279535952795AF
S1130360AC0143705078552334F4415051094C6F1B
S11303705F6F4F5F5F4F409758F4220F331F220F78
S1130380331F2E593F4FF901E40FF51F8081089563
S113039080E0089520E030E01AC085B3806585BB15
S11303A04FEF82E597E0415080409040E1F700C074
S11303B0000085B38F7A85BB4FEF80E792E0415010
S11303C080409040E1F700C000002F5F3F4F233092
S11303D031051CF30895CF93DF9380E88BBB4BEC7E
S11303E050E060E081E00E94A40047ED50E060E04E
S11303F082E00E94A4002FEF88EF95E12150804015
S11304009040E1F700C000000E94BC00C0E0D0E0D2
S11304103FC080E885BB2FEF89E698E121508040FA
S11304209040E1F700C0000085B38F7785BB2FEFC4
S113043085EA9EE0215080409040E1F700C0000032
S1130440CF990DC08FED90E00E948E002FEF84E3D2
S11304509CE0215080409040E1F700C00000C4308F
S1130460D105A9F44BEE50E060E081E00E94A400C5
S113047049EF50E060E082E00E94A4002FEF84E3A3
S11304809CE0215080409040E1F700C0000021969C
S1130490C530D1050CF4BDCFDF91CF910895CF9332
S11304A0DF93C82F80E80E94490084EC0E94490031
S11304B0C03409F045C00CC0FC01EE58FF4F308138
S11304C0FC01E05BFE4F208132130AC0019602C09A
S11304D080E090E0843091057CF381E090E002C0FC
S11304E080E090E0892B59F080914E0190914F016A
S11304F0049729F4F8940E94EB01789410C0F894BE
S113050041E051E060E081E00E94A4004BE051E052
S113051060E082E00E94A4000E94CA0178941092D4
S11305204F0110924E0184E090E09093610080931B
S11305306000E0E5F1E0DF011D928A95E9F761C012
S1130540C835E9F40E94BC00C0E0D0E010C0FE0150
S1130550E05BFE4F80810E945E00BFEF24E38CE0ED
S1130560B15020408040E1F700C000002196809106
S11305704E0190914F01C817D9074CF342C08091A6
S11305804E0190914F0184309105F4F4FC01E05B3D
S1130590FE4FC08341E151E06091600082E00E941F
S11305A0A40080914E0190914F01019690934F01C8
S11305B080934E0180916000909161000196909328
S11305C06100809360001DC00E94BC0043E151E0C3
S11305D060E081E00E94A4009FEFA9E6B8E1915099
S11305E0A040B040E1F700C000000E94BC0010929F
S11305F04F0110924E0184E090E09093610080934B
S11306006000DF91CF9108951F920F920FB60F9261
S113061011242F933F934F935F936F937F938F9303
S11306209F93AF93BF93EF93FF93CF93DF9300D048
S113063000D0CDB7DEB70E94730084E0898385E0E3
S11306408A8386E08B8387E08C8340E050E080E0FF
S11306501BC026B3E1E0F0E0EC0FFD1FE40FF51F33
S113066030E0008002C0359527950A94E2F720FF18
S113067009C021E030E0042E02C0220F331F0A9487
S1130680E2F7822B4F5F5F4F4430510514F390E043
S11306900E94A701833239F02091620130916301F5
S11306A0253031059CF00E94D70080916201909121
S11306B06301059690936301809362018A359105E5
S11306C03CF0109263011092620102C00E944F023A
S11306D00F900F900F900F90DF91CF91FF91EF91BA
S11306E0BF91AF919F918F917F916F915F914F9146
S11306F03F912F910F900FBE0F901F9018950E945D
S1130700C3008BB380648BBBCE9B1EC080E00E9471
S1130710C900853F9140C4F3F8940E94CA010E9425
S1130720BC0041E251E061E080E00E94A4008FEF50
S113073094E32CE0815090402040E1F700C0000099
S11307400E94BC007894E0CF08958FEF84BB0E9490
S1130750C3000E94730080E28BBF84B78F7B84BF89
S113076078944FE251E060E081E00E94A4004EE3FF
S113077051E060E082E00E94A4008CE00E94490005
S11307800E947F03FDCFFB01DC014150504030F05B
S11307908D910190801919F40020B9F7881B990BE9
S11307A00895FB01DC014150504048F001900D9246
S11307B00020C9F701C01D9241505040E0F7089550
S10707C0F894FFCFD7
S11307C404003738392F343536583132332D233039
S11307D4402B30393837456E746572204E65772066
S11307E4506173733A0057726F6E6720506173736C
S11307F4776F7264210054727920416761696E3A9B
S113080400436F6E6669726D20506173733A0050D1
S1130814617373776F7264205570646174656421C5
S1130824004D69736D6174636821005075736820A9
S1130834427574746F6E00546F204F70656E00506F
S1130844756C6C2068616E646C650054696D652018
S11308544F7574205361666500436C6F736564213E
S113086400212157726F6E672121002150494E21C6
S1130874002A004D61782034206469676974732107
S113088400546865667421205468656674210045C3
S11308944E5445522050415353574F5244005072C2
S11108A4657373202320746F2050696E00006A
S9030000FC
