:100000000C942A000C9434000C9434000C943400AA
:100010000C9434000C9434000C9434000C94340090
:100020000C9434000C9434000C9434000C94340080
:100030000C9434000C9434000C9434000C94340070
:100040000C9434000C9434000C9434000C94340060
:100050000C94340011241FBECFE5D8E0DEBFCDBF25
:100060000E9473000C94AE000C9400008BE683BFDA
:1000700087B3886087BB08951ABA87E886B980E499
:1000800087B9089597B18F70982B97B986B180641E
:1000900086B9349BFECF8FE19EE40197F1F700C053
:1000A000000024B185B190E0982F8827820F911D20
:1000B00008950F931F93FC01E61BF70B021B130B14
:1000C000E09FC001E19F900DF09F900D1124FA0177
:1000D000E61BF70BBF010E948600C901860F971F20
:1000E0001F910F9108950E9436000E943C0080E00D
:1000F0000E9442000FEF10E020E030E04FEF53E0AD
:1001000060E070E00E9459008CBFF1CF97FB072E92
:1001100016F4009407D077FD09D00E949A0007FCDE
:1001200005D03EF4909581959F4F08957095619507
:100130007F4F0895AA1BBB1B51E107C0AA1FBB1F1D
:10014000A617B70710F0A61BB70B881F991F5A9563
:10015000A9F780959095BC01CD010895F894FFCF43
:00000001FF
