:020000040000FA
:100000000C945D000C9485000C9485000C94850084
:100010000C9485000C9485000C9485000C9485004C
:100020000C9485000C9485000C9485000C9485003C
:100030000C9485000C9485000C9485000C9485002C
:100040000C943E020C9485000C9485000C94850061
:100050000C9485000C9485000C9485000C9485000C
:100060000C9488020C9485000000000024002700F6
:100070002A0000000000250028002B0004040404CE
:100080000404040402020202020203030303030342
:10009000010204081020408001020408102001021F
:1000A00004081020000000080002010000030407FB
:1000B0000000000000000000A70311241FBECFEFC6
:1000C000D8E0DEBFCDBF11E0A0E0B1E0EAEFF7E09D
:1000D00002C005900D92A231B107D9F721E0A2E14B
:1000E000B1E001C01D92A13CB207E1F710E0CDE5FF
:1000F000D0E004C02197FE010E94F503CC35D10762
:10010000C9F70E94B8030C94FB030C94000090E024
:10011000FC01EC55FF4F2491FC01E057FF4F349157
:10012000FC01E458FF4FE491EE23C9F0222339F09B
:10013000233001F1A8F4213019F1223029F1F0E047
:10014000EE0FFF1FEE58FF4FA591B4918FB7F894B3
:10015000EC91611126C030953E233C938FBF0895EA
:100160002730A9F02830C9F0243049F78091800069
:100170008F7D03C0809180008F7780938000DFCFD8
:1001800084B58F7784BDDBCF84B58F7DFBCF809125
:10019000B0008F778093B000D2CF8091B0008F7D78
:1001A000F9CF3E2BDACF3FB7F8948091BD01909103
:1001B000BE01A091BF01B091C00126B5A89B05C0AA
:1001C0002F3F19F00196A11DB11D3FBFBA2FA92FD6
:1001D000982F8827BC01CD01620F711D811D911DD3
:1001E00042E0660F771F881F991F4A95D1F708953F
:1001F0008F929F92AF92BF92CF92DF92EF92FF9237
:100200000E94D3004B015C0182E3C82ED12CE12C6B
:10021000F12C0E94D300681979098A099B09683E6C
:10022000734081059105A8F321E0C21AD108E108C5
:10023000F10888EE880E83E0981EA11CB11CC11441
:10024000D104E104F10429F7FF90EF90DF90CF9003
:10025000BF90AF909F908F90089520916C01260FD2
:100260003327331F21323105ECF420919201FC0138
:1002700090E080E0243069F082E00895A0916C0164
:100280002191AC01465B5E4FA40FB52FB11D2C939D
:100290000196861798F380916C01680F60936C014A
:1002A00080E0089581E008951092920181E08093AA
:1002B00094011092930161E082E10E94870061E065
:1002C00083E10E948700E9EBF0E080818E7F8083EC
:1002D00080818D7F808388E48093B80085E480935B
:1002E000BC0008950895CF93DF93AC01E0913401F1
:1002F000F09135013097F1F0909133018091320106
:100300009817C0F090E0292F30E02617370754F4F3
:10031000D901AE5EBE4F240F351FE90128812C9311
:100320009F5FF1CF1092330160933201CB01DF91D7
:10033000CF910994DF91CF9108950895E091330111
:1003400080913201E81730F4F0E0EE5EFE4F8081DC
:1003500090E008958FEF9FEF089590913301809181
:1003600032012FEF3FEF981748F4E92FF0E0EE5EEF
:10037000FE4F208130E09F5F90933301C9010895C3
:100380008091320190913301891B990B0895CF938D
:10039000DF93CB01EA01642F0E942D01CE01DF9192
:1003A000CF910895CF93DF931F92CDB7DEB76983C6
:1003B00061E0CE0101960E942D0181E090E00F9056
:1003C000DF91CF91089590E080E008950895CF9354
:1003D000DF9385ED8093BC008091460190914701A9
:1003E000A0914801B09149010796A11DB11D23E0DC
:1003F000B695A795979587952A95D1F72091BC003A
:1004000024FD03C01092920136C0409146015091E4
:1004100047016091480170914901452B462B472BBC
:1004200069F30097A105B10541F02AE22A95F1F799
:1004300000C00197A109B109E1CF8091450191E088
:10044000909344018823B9F0C091B800D091BA00CC
:100450008091BC008A7B8093BC0060E082E10E94B6
:10046000870060E083E10E9487000E945401D093DE
:10047000BA00C093B800DF91CF9108951F920F92F8
:100480000FB60F9211242F933F938F939F93AF93A7
:10049000BF938091B9019091BA01A091BB01B09135
:1004A000BC013091B80123E0230F2D3758F5019698
:1004B000A11DB11D2093B8018093B9019093BA0199
:1004C000A093BB01B093BC018091BD019091BE018E
:1004D000A091BF01B091C0010196A11DB11D8093F3
:1004E000BD019093BE01A093BF01B093C001BF9125
:1004F000AF919F918F913F912F910F900FBE0F90D1
:100500001F90189526E8230F0296A11DB11DD2CF8A
:100510001F920F920FB60F9211242F933F934F9378
:100520005F936F937F938F939F93AF93BF93EF935B
:10053000FF938091B900887F803609F44AC0F0F5B6
:10054000883209F4A7C018F5803109F49BC0B8F4CB
:10055000882309F4F9C0883009F494C0FF91EF9121
:10056000BF91AF919F918F917F916F915F914F91CB
:100570003F912F910F900FBE0F901F9018958831CB
:1005800009F488C0803251F78093910114C08034FF
:1005900009F49DC040F48033B9F38833F9F68093B1
:1005A000910185ECB0C0803509F485C0883509F427
:1005B00096C0883499F60E94E701D0CF883909F4B3
:1005C0008CC038F5883729F050F4883611F0803720
:1005D00029F683E0809392011092900157C08838E9
:1005E00009F47BC0803919F0803809F0B7CF8091C9
:1005F0009001803208F071C0E091900181E08E0F8F
:10060000809390018091BB00F0E0E059FE4F808321
:100610003DC0803B39F0E0F4803A09F479C0883A73
:1006200009F09CCF84E08093920110926D011092AA
:100630006C01E0916A01F0916B01099580916C0168
:1006400081110FC081E080936C0110924A0109C0B2
:10065000803C09F4A6CF883C09F4A3CF883B09F07D
:100660007DCFE0916D0181E08E0F80936D01F0E010
:10067000E65BFE4F80818093BB0090916D0180917D
:100680006C0129C08091B7018093BB0085EC8093F9
:10069000BC0064CF9091B6018091B501981758F5D0
:1006A000E091B60181E08E0F8093B601F0E0EB5649
:1006B000FE4F8081E9CFE091B60181E08E0F8093FB
:1006C000B6018091BB00F0E0EB56FE4F8083909125
:1006D000B6018091B5019817C8F285E8D8CFE091AE
:1006E000B60181E08E0F8093B6018091BB00F0E0EF
:1006F000EB56FE4F80838091940181115CCF81E0A5
:100700008093930184EA8093BC001092920126CFDB
:1007100085EC8093BC001092920180919001803210
:1007200030F4E0919001F0E0E059FE4F10826091CA
:10073000900170E0E0916E01F0916F0180E791E02F
:100740000995109290010ACF1092910134CFE8E3FD
:10075000F1E01382128288EE93E0A0E0B0E084839F
:100760009583A683B78384E091E091838083089585
:10077000EDE9F0E02491E9E8F0E08491882399F034
:1007800090E0880F991FFC01E859FF4FA591B491A3
:10079000FC01EE58FF4F859194918FB7F894EC913E
:1007A000E22BEC938FBF1092330110923201109222
:1007B0003701109236010E94540182E791E0909334
:1007C0006B0180936A0183E791E090936F018093BE
:1007D0006E018AE18093BA0086EE91E09093350134
:1007E0008093340190E080E00895EE0FFF1F0590A4
:1007F000F491E02D0994F894FFCF00000000D2019D
:0C080000C701E3019D01C001AD019E0194
:107E0000112484B714BE81FFF0D085E080938100F7
:107E100082E08093C00088E18093C10086E0809377
:107E2000C20080E18093C4008EE0C9D0259A86E02C
:107E300020E33CEF91E0309385002093840096BBD3
:107E4000B09BFECF1D9AA8958150A9F7CC24DD24C4
:107E500088248394B5E0AB2EA1E19A2EF3E0BF2EE7
:107E6000A2D0813461F49FD0082FAFD0023811F036
:107E7000013811F484E001C083E08DD089C08234E0
:107E800011F484E103C0853419F485E0A6D080C0E4
:107E9000853579F488D0E82EFF2485D0082F10E0AE
:107EA000102F00270E291F29000F111F8ED06801E7
:107EB0006FC0863521F484E090D080E0DECF843638
:107EC00009F040C070D06FD0082F6DD080E0C81688
:107ED00080E7D80618F4F601B7BEE895C0E0D1E017
:107EE00062D089930C17E1F7F0E0CF16F0E7DF06D8
:107EF00018F0F601B7BEE89568D007B600FCFDCFD4
:107F0000A601A0E0B1E02C9130E011968C91119780
:107F100090E0982F8827822B932B1296FA010C0160
:107F200087BEE89511244E5F5F4FF1E0A038BF0790
:107F300051F7F601A7BEE89507B600FCFDCF97BE46
:107F4000E89526C08437B1F42ED02DD0F82E2BD052
:107F50003CD0F601EF2C8F010F5F1F4F84911BD097
:107F6000EA94F801C1F70894C11CD11CFA94CF0C13
:107F7000D11C0EC0853739F428D08EE10CD085E9AC
:107F80000AD08FE07ACF813511F488E018D01DD067
:107F900080E101D065CF982F8091C00085FFFCCF94
:107FA0009093C60008958091C00087FFFCCF809118
:107FB000C00084FD01C0A8958091C6000895E0E648
:107FC000F0E098E1908380830895EDDF803219F02E
:107FD00088E0F5DFFFCF84E1DECF1F93182FE3DFCA
:107FE0001150E9F7F2DF1F91089580E0E8DFEE27F6
:047FF000FF270994CA
:027FFE00040479
:00000001FF
